:100000000C946A100C9487100C9487100C946B1845
:100010000C9487100C9487100C9487100C947726FE
:100020000C9487100C9487100C9487100C948710F4
:100030000C9487100C9406160C9487100C9487105F
:100040000C9487100C9487100C9487100C948710D4
:100050000C94871047657420504F4E473A2025690D
:100060002E25692E25692E25690D0A004552524F0D
:10007000520D0A0052656164790D0A0020436F6DCC
:100080006D616E64200D0A005061796C6F61645F70
:100090006C656E203D202569206279746573206F40
:1000A0007074696F6E73203D256920696E74730DDD
:1000B0000A000D0A53697A65206F662072656365D0
:1000C0006976656420554450207061636B656420D7
:1000D0006973202569206279746573200D0A000D0B
:1000E0000A002532782C2000205265636569766508
:1000F00064207061636B6574200D0A005061796C37
:100100006F61642073697A65206973202569200D09
:100110000A0053656E7420646973636F766572209C
:100120007061636B6574200D0A00475720202025FD
:1001300031692E2531692E2531692E2531690D0A47
:10014000004D41534B202531692E2531692E253133
:10015000692E2531690D0A000D0A495020202025FD
:1001600031692E2531692E2531692E2531690D0A17
:10017000005265616420416E616C6F6720696E702A
:100180007574202531692C204144432064617461D9
:10019000203D3E20253169200D0A0055534152541F
:1001A00020776974682055425252203D3E20253107
:1001B000690D0A00446F6E6520776974682057697D
:1001C0006E4156522026204743432056657273697C
:1001D0006F6E20342E332E330D0A00436F6D70691D
:1001E0006C65642044656320203620323031322033
:1001F00061742031313A34393A30360D0A0053797E
:100200007374656D205265616479200D0A000D0AD2
:10021000000D0A002532782C20000D0A000D0A007E
:100220002532782C200073656E74207061636B65D5
:1002300074200D0A0043524320253478200D0A0013
:100240004D792049503A202531692E2531692E25D6
:1002500031692E2531690D0A0D0A00524553455466
:1002600020202D20726573657420746865204156C6
:1002700052202D20436F6E74726F6C6C65720D0A84
:10028000415250202020202D206C69737420746806
:100290006520415250207461626C650D0A544350D0
:1002A000202020202D206C697374207468652074D0
:1002B0006370207461626C650D0A49502020202013
:1002C000202D206C6973742F6368616E67652069E7
:1002D000700D0A4E4554202020202D206C69737427
:1002E0002F6368616E6765206E65746D61736B0D59
:1002F0000A524F55544552202D206C6973742F6358
:1003000068616E676520726F757465722069700D23
:100310000A4E5450202020202D206C6973742F63C6
:1003200068616E6765204E54500D0A4E545052203D
:1003300020202D204E545020526566726573680D42
:100340000A4D4143202020202D206C697374204DDC
:1003500041432D616464726573730D0A56455220E2
:100360002020202D206C69737420656E63207665D3
:100370007273696F6E206E756D6265720D0A5356E9
:1003800020202020202D2073657420766172696101
:10039000626C650D0A50494E472020202D20736560
:1003A0006E642050696E670D0A54494D4520202027
:1003B0002D206765742074696D650D0A494E495496
:1003C0004950202D2073656E6420205544502064D0
:1003D0006973636F76657279207061636B65740D04
:1003E0000A48454C502020202D207072696E7420E0
:1003F00048656C70746578740D0A3F2020202020B9
:10040000202D207072696E742048656C7074657858
:10041000740D0A002563000A0D54494D453A202504
:1004200032693A2532693A2532690D0A00496E6807
:10043000616C7420646572205661726961626C65DA
:100440005B2532695D203D202532690D0A002020A0
:1004500054696D653A2534690D0A002020504F52C9
:10046000543A253469002E253369002E253369005E
:100470002E25336900202049503A25336900253262
:100480006900202054696D653A2534690D0A002EF3
:10049000253369002E253369002E2533690020207D
:1004A00049503A253369002E253278002E253278BE
:1004B000002E253278002E253278002E2532780045
:1004C00025326920204D41433A25327800454E437C
:1004D00032384A36302D56657273696F6E3A202570
:1004E00031780D0A004D79204D41433A202532786C
:1004F0003A2532783A2532783A2532783A253278D8
:100500003A2532780D0A00526F7574657220495091
:100510003A202531692E2531692E2531692E253164
:10052000690D0A004E45544D41534B3A202531691F
:100530002E2531692E2531692E2531690D0A004D90
:10054000792049503A202531692E2531692E2531EF
:10055000692E2531690D0A0041424344454647480A
:10056000494A4B4C4D4E4F50515253545556575883
:10057000595A6162636465666768696A6B6C6D6E1F
:100580006F707172737475767778797A303132332F
:100590003435363738392B2F3D000400051A06FF55
:1005A000071F080009000AFF0B19C100C00DC23364
:1005B000CAEECB05C415C612E400E520E218E3B18B
:1005C000E015E16E7500FFFF000100140742FFFF18
:1005D000656E632072657669642025780A00656E11
:1005E000635F73656E643A20726573657420747816
:1005F000206C6F6769630A00656E635F73656E6484
:100600003A2025692062797465730A003C21444FC1
:1006100043545950452068746D6C205055424C49E4
:100620004320222D2F2F5733432F2F44544420484B
:10063000544D4C20342E3031205472616E736974E5
:10064000696F6E616C2F2F454E2220226874747082
:100650003A2F2F7777772E77332E6F72672F54527A
:100660002F68746D6C342F6C6F6F73652E647464B7
:10067000223E0D0A3C68746D6C3E3C686561643EC8
:100680000D0A3C6D65746120687474702D65717518
:1006900069763D22636F6E74656E742D7479706532
:1006A0002220636F6E74656E743D22746578742FBA
:1006B00068746D6C3B20636861727365743D495367
:1006C0004F2D383835392D31223E0D0A3C7469746E
:1006D0006C653E415652206D696E692057656273A4
:1006E0006572766572203A20486F6D653C2F74699B
:1006F000746C653E0D0A3C6C696E6B2072656C3DD6
:10070000227374796C6573686565742220747970DE
:10071000653D22746578742F63737322202068729C
:1007200065663D227374796C65732E637373223E24
:100730003C2F686561643E3C626F64793E0D0A3C03
:1007400068313E415652206D696E6920576562736B
:100750006572766572203A20486F6D653C2F68316E
:100760003E0D0A3C6469762069643D226E61762202
:100770003E3C6120687265663D22696E6465782E34
:1007800068746D223E486F6D653C2F613E3C612070
:10079000687265663D227374617475732E68746D3A
:1007A000223E5374617475733C2F613E3C2F646923
:1007B000763E0D0A3C6469762069643D226D61696C
:1007C0006E223E3C68323E476CFC636B77756E73FD
:1007D0006368213C2F68323E3C62723E0D0A3C69E0
:1007E0006D67207372633D2272616B65742E676959
:1007F00066222077696474683D223930222068655A
:10080000696768743D2239322220616C743D22226E
:100810003E3C62723E3C62723E0D0A3C703E447544
:10082000206861737420657320676573636861660F
:1008300066743A2044657220576562736572766506
:1008400072206CE4756674213C2F703E3C62723EEF
:100850003C68723E3C62723E0D0A3C6469762073CD
:1008600074796C653D2277696474683A323030700F
:10087000783B6D617267696E3A2030206175746FE4
:100880003B223E0D0A3C646976207374796C653DA9
:1008900022666C6F61743A6C6566743B7769647448
:1008A000683A3130307078223E0D0A3C666F726DC6
:1008B000206D6574686F643D22706F7374222061CF
:1008C0006374696F6E3D22696E6465782E68746D1D
:1008D000223E0D0A3C696E707574206E616D653D37
:1008E000224F55542220747970653D2263686563F8
:1008F0006B626F78222076616C75653D2241222003
:1009000025504F525441303E506F72742041205058
:10091000696E20303C62723E0D0A3C696E707574DF
:10092000206E616D653D224F5554222074797065AB
:100930003D22636865636B626F78222076616C7517
:10094000653D2242222025504F525441313E506F86
:10095000727420412050696E20313C62723E0D0A53
:100960003C696E707574206E616D653D224F555403
:100970002220747970653D22636865636B626F78CD
:10098000222076616C75653D2243222025504F520E
:100990005441323E506F727420412050696E2032B3
:1009A0003C62723E3C62723E0D0A3C696E70757428
:1009B000206E616D653D22535542222076616C7533
:1009C000653D2253656E64656E2220747970653DC5
:1009D000227375626D6974223E0D0A3C2F666F7238
:1009E0006D3E3C2F6469763E0D0A3C646976207347
:1009F00074796C653D22666C6F61743A6C656674DF
:100A00003B2077696474683A3130307078223E0D4B
:100A10000A3C696D67207372633D222550494E443C
:100A2000372220616C743D22223E20506F72742068
:100A3000442050696E20373C62723E3C696D6720ED
:100A40007372633D222550494E44362220616C74F6
:100A50003D22223E20506F727420442050696E2047
:100A6000363C62723E3C696D67207372633D22259D
:100A700050494E44352220616C743D22223E205064
:100A80006F727420442050696E20353C62723E3C87
:100A90002F6469763E3C2F6469763E0D0A3C64699A
:100AA0007620636C6173733D22636C656172223ED4
:100AB0003C2F6469763E0D0A3C62723E3C68723E91
:100AC0003C62723E0D0A3C7461626C6520626F721A
:100AD0006465723D22302220636C6173733D227421
:100AE000656D7054626C2220616C69676E3D226393
:100AF000656E746572222077696474683D223430B3
:100B00003070783B223E0D0A3C74723E0D0A3C74F4
:100B1000683E45696E67616E673C2F74683E0D0ADA
:100B20003C74683E42616C6B656E3C2F74683E0D90
:100B30000A3C74683E54656D70657261747572200C
:100B40005BB0435D3C2F74683E0D0A3C2F74723ECF
:100B50003C74723E0D0A3C74643E41442D4B616E00
:100B6000616C303C2F74643E0D0A3C7464207374D5
:100B7000796C653D22746578742D616C69676E3A95
:100B80006C656674223E3C696D67207372633D221A
:100B9000696E6465782D4461746569656E2F626164
:100BA0006C6B652E6769662220616C743D22222081
:100BB0006865696768743D22313022207769647402
:100BC000683D22255641403030223E3C2F74643E21
:100BD0000D0A3C74643E2556414030303C2F74640D
:100BE0003E0D0A3C2F74723E3C74723E0D0A3C74FA
:100BF000643E41442D4B616E616C313C2F74643E08
:100C00000D0A3C7464207374796C653D22746578B8
:100C1000742D616C69676E3A6C656674223E3C693E
:100C20006D67207372633D22696E6465782D44613F
:100C3000746569656E2F62616C6B652E67696622EB
:100C400020616C743D2222206865696768743D22CA
:100C50003130222077696474683D22255641403046
:100C600031223E3C2F74643E0D0A3C74643E25568E
:100C7000414030313C2F74643E0D0A3C2F74723E6B
:100C80003C74723E0D0A3C74643E41442D4B616ECF
:100C9000616C323C2F74643E0D0A3C7464207374A2
:100CA000796C653D22746578742D616C69676E3A64
:100CB0006C656674223E3C696D67207372633D22E9
:100CC000696E6465782D4461746569656E2F626133
:100CD0006C6B652E6769662220616C743D22222050
:100CE0006865696768743D223130222077696474D1
:100CF000683D22255641403032223E3C2F74643EEE
:100D00000D0A3C74643E2556414030323C2F7464D9
:100D10003E0D0A3C2F74723E3C74723E0D0A3C74C8
:100D2000643E41442D4B616E616C333C2F74643ED4
:100D30000D0A3C7464207374796C653D2274657887
:100D4000742D616C69676E3A6C656674223E3C690D
:100D50006D67207372633D22696E6465782D44610E
:100D6000746569656E2F62616C6B652E67696622BA
:100D700020616C743D2222206865696768743D2299
:100D80003130222077696474683D22255641403015
:100D900033223E3C2F74643E0D0A3C74643E25565B
:100DA000414030333C2F74643E0D0A3C2F74723E38
:100DB0000D0A3C2F7461626C653E0D0A3C2F64691C
:100DC000763E3C6469762069643D227461696C22D8
:100DD0003E3C6120687265663D22687474703A2FEB
:100DE0002F7777772E756C726963687261646967B3
:100DF0002E6465223E7777772E756C726963687210
:100E0000616469672E64653C2F613E20556C726990
:100E1000636820526164696720323030383C2F6447
:100E200069763E0D0A3C2F626F64793E3C2F6874F0
:100E30006D6C3E25454E44003C21444F435459506F
:100E4000452068746D6C205055424C494320222D3A
:100E50002F2F5733432F2F4454442048544D4C20B8
:100E6000342E3031205472616E736974696F6E6113
:100E70006C2F2F454E222022687474703A2F2F77E2
:100E800077772E77332E6F72672F54522F68746DD9
:100E90006C342F6C6F6F73652E647464223E0D0A80
:100EA0003C68746D6C3E3C686561643E0D0A3C6D47
:100EB00065746120687474702D65717569763D2262
:100EC000636F6E74656E742D747970652220636F24
:100ED0006E74656E743D22746578742F68746D6CE1
:100EE0003B20636861727365743D49534F2D3838F8
:100EF00035392D31223E0D0A3C7469746C653E41D2
:100F00005652206D696E6920576562736572766509
:100F100072203A205374617475733C2F7469746C39
:100F2000653E0D0A3C6C696E6B2072656C3D2273E8
:100F300074796C6573686565742220747970653D99
:100F400022746578742F637373222020687265663B
:100F50003D227374796C65732E637373223E3C2F4C
:100F6000686561643E3C626F64793E3C68313E4135
:100F70005652206D696E6920576562736572766599
:100F800072203A205374617475733C2F68313E0DA2
:100F90000A3C6469762069643D226E6176223E3C9B
:100FA0006120687265663D22696E6465782E68749A
:100FB0006D223E486F6D653C2F613E3C612068723A
:100FC00065663D227374617475732E68746D223E7C
:100FD0005374617475733C2F613E3C2F6469763E97
:100FE0000D0A3C6469762069643D226D61696E2258
:100FF0003E0D0A436F6D70696C6965727420616D96
:1010000020446563202036203230313220756D2037
:1010100031313A34303A34363C62723E3C62723E90
:101020000D0A436F6D70696C69657274206D697427
:10103000204743432056657273696F6E20342E3308
:101040002E333C62723E3C62723E0D0A42657375FD
:1010500063686572207365697420537461727420CB
:1010600064657320576562736572766572732028B4
:10107000255641403039293C62723E3C62723E0D39
:101080000A3C2F6469763E3C6469762069643D229F
:101090007461696C223E3C6120687265663D22681D
:1010A0007474703A2F2F7777772E756C7269636836
:1010B00072616469672E6465223E7777772E756C5E
:1010C0007269636872616469672E64653C2F613E72
:1010D00020556C7269636820526164696720323000
:1010E00030383C2F6469763E0D0A3C2F626F64797C
:1010F0003E3C2F68746D6C3E0D0A25454E440062DF
:101100006F64797B6D617267696E3A2034307078F4
:101110003B7D20626F64792C702C6469762C683179
:101120002C68322C74642C74687B666F6E742D6628
:10113000616D696C793A73616E732D73657269665E
:101140003B666F6E742D73697A653A313170787DC4
:1011500068317B666F6E742D73697A653A323070D0
:10116000783B636F6C6F723A77686974653B206295
:1011700061636B67726F756E642D636F6C6F723A2B
:10118000233936423131433B6D617267696E3A31C2
:1011900070783B70616464696E673A3570783B744F
:1011A0006578742D616C69676E3A63656E746572FB
:1011B0003B7D68327B666F6E742D73697A653A3158
:1011C0003870783B636F6C6F723A23393642313135
:1011D000437D702C68327B6D617267696E3A307046
:1011E000783070783570783070787D696D677B62A3
:1011F0006F726465723A307D68727B636F6C6F7278
:101200003A73696C7665723B206261636B67726FDB
:10121000756E642D636F6C6F723A73696C7665726C
:101220003B626F726465723A303B686569676874E7
:101230003A3170787D236E61767B666F6E742D73A4
:10124000697A653A20313670783B206261636B675A
:10125000726F756E642D636F6C6F723A73696C7622
:1012600065723B6D617267696E3A3170783B70618F
:101270006464696E673A3570783B666F6E742D777B
:1012800065696768743A626F6C647D236E6176206D
:10129000612C20237461696C20617B636F6C6F72B9
:1012A0003A77686974653B2070616464696E673A77
:1012B000313070783B746578742D6465636F72614A
:1012C00074696F6E3A6E6F6E657D236E6176206114
:1012D0003A686F7665722C237461696C20613A6894
:1012E0006F7665727B746578742D6465636F726167
:1012F00074696F6E3A756E6465726C696E657D2394
:101300007461696C7B20636F6C6F723A7768697483
:10131000653B206261636B67726F756E642D636FEE
:101320006C6F723A73696C7665723B746578742D74
:10133000616C69676E3A63656E7465723B70616477
:1013400064696E673A3570787D236D61696E7B7470
:101350006578742D616C69676E3A63656E74657249
:101360003B6D617267696E3A323070787D2E636CC6
:101370006561727B636C6561723A6C6566747D2E23
:1013800074656D7054626C207B7461626C652D6C49
:1013900061796F75743A6175746F3B626F726465E1
:1013A000722D73706163696E673A307D2E74656D5E
:1013B0007054626C2074647B746578742D616C6900
:1013C000676E3A63656E7465723B70616464696EE2
:1013D000673A3770787D2E74656D7054626C207436
:1013E000687B6261636B67726F756E642D636F6C8F
:1013F0006F723A73696C7665727D25454E4400477D
:10140000494638396111001100A207006262621971
:10141000AD2121E22CA5A5A564E66BA5F3A9D5D540
:10142000D5FFFFFF21F90401000007002C00000098
:10143000001100110000036078AAD6F366C9D3EA50
:10144000BB5156127A1700302C4DF109A8D085599E
:101450001308444CA46A48192A51EC73BA0E2ED8CA
:10146000AE10A30544411D8F56130D5EB2A231F498
:1014700078A17ACCA3D3CA9C020C4F6EF777A876DA
:101480007D364AE8E4D38E1483B5C7439D1842F8ED
:10149000FC7B528EE3F70A09003B25454E44474941
:1014A0004638396111001100A20700575657696983
:1014B000697E7E7E909191B0B0B0C8C8C8E7E7E77A
:1014C000FFFFFF21F90401000007002C00000000CD
:1014D0001100110000036F78AA5645B0AC794C7327
:1014E000706839AD1901200642492C56416A4319EA
:1014F00090016705034468A5F00A55D1128E47CBC9
:10150000A503AA6A85C62DA7A3390048CCB03482AA
:10151000406B99A94004B00A58386615C42CBB002A
:10152000029FCE9C23750F2D125B0708280A2E7987
:101530003BF45610767C757C2713782F5C55140B82
:10154000372124840B09003B25454E444749463842
:10155000396102000A00A20000A2A5ED848FE566B1
:101560007CDD4960D62144DAFE0102000000000063
:101570000021F90405140005002C00000000020001
:101580000A0000030A483423120148001D530900D1
:101590003B25454E444749463839615A005C00A214
:1015A00004007979D8F6F4E1C9C9E09C98D8FFFF26
:1015B000FFF4F6B0F9FD7CA6A48E21F90401000029
:1015C00004002C000000005A005C000003FF48BA31
:1015D000DCFE2E2C4982A5B35A21B49618068D64E0
:1015E000697A8D85A65CA5A88F78CEB429BF99307D
:1015F0000C541FD7C0E00B36C4650803C0C018E800
:101600004C6EC228E9C22C1061802C2EB0937A69EE
:10161000A04B58614D55B2CB854009837EDF9FDEDC
:101620006E27085FD6EC57B2FE72C2836E16562044
:10163000493B597C61783C1549794D7C7F80442F2A
:1016400005655C4A0B7B4F8A9968126B7E91336209
:101650002E13959F8E4D59228A1B9E4D7B6E66A23E
:1016600071220195056775033AAF139A04781D97A7
:1016700069A5B45362B6B81600BB599E4F3B206BA8
:101680003CAABCC647C70C17832015CB01ABC107CA
:101690000790DF052D153A2087A3B25282A72105B6
:1016A00006A785F176B7DD1A75E8E5B693B0450A69
:1016B00003CE14BD41B1E4A90860A05E087C436478
:1016C000F8785763E2B96594E8D53BD30CFF1C88E2
:1016D00086959EDCF2A1A00EAC39739C488C716596
:1016E00024A145FA1C6AA8041215008FB740E6A28F
:1016F00060A59B0E434A9E3DE345D1863E668E34EF
:1017000026D3B8F1D28153DF1ACABC50AE97D0436A
:101710001C1A350B18459F95A1FD6A4E90BA33CB24
:10172000017D511D3ED22A94688F4B5B6D4000783D
:1017300050119B9C213F8A4D380897D5ABBC4C4E2D
:10174000E840CDDC082ADB20E06A648817CD41152B
:10175000C85AD8034EC001B687DA20A9C3818312C4
:101760009546BEE8632C5480C6534CCB911340D6AB
:101770000A1E349030F0A016B85D9C6C5304FE6ACB
:1017800086F9A9CED4E568D63B35D41B150985B0BA
:10179000668EE04256B2E35B9270E9DDFAF763725F
:1017A000955EA721D54495A77B22B92373C91D391E
:1017B0000058CDD0300529B53DF6ECCF86254EFE3C
:1017C000B9D173852BE6C6537861556061FFEBB5DF
:1017D000D75E01C15572407C0F5503562F1BE08226
:1017E00013185E6124CC1C43AD67A1813D3DA59DCE
:1017F0001C48F03214019971E0A03C15CD34A27759
:10180000577972DA7A6779155C38F1BD70DE6B5BF7
:101810000913C059273AF7033723FE445F85023680
:1018200074A069FE3CF5D587C87986206CEFED037E
:10183000CF7E12D687C67941D6438E95375971A08F
:1018400050145083203516F806996E42C454532C18
:10185000AEB056E56300B4A81563EAB4E5DD2DEF3C
:101860008D51D42C89E544965D4205285C439C311A
:10187000560782483C33D9564D3257620AF190558B
:10188000085BA691859D90E830E6CA2B9C3068598C
:101890004FC655F4DC0D661A306456663145A09883
:1018A0005AC608171A25119584862671F59C195079
:1018B000E6F8C4410560B6CA80A6B245C1A39975D1
:1018C0000763766DF038A293DB1C7BAC18FF8FF9B1
:1018D0000854A4411278950BB114320C1E46DAE17B
:1018E00020AF24EA37A280CAC2D899B57E0AE38B1A
:1018F00074C13C6A15913D05D8DA984FB0F4A74EF3
:1019000096B1AB8856BEED69DF67BF02104C8A8680
:101910006EBB26B2C5CAEA154834667BD9B8879C27
:10192000F69A3554EC0170A9550E470A9E571401DA
:10193000258D6D1A59188DCBC009A60B1C6FD5C407
:10194000A4D196815B62CCD9525285A756A26B96E0
:10195000D2F24B4D29343AE62EAFC9CC45E60F7191
:10196000B201D201F5E86AE496E2C4F27271A755B9
:10197000DCCDC59E7ECACE56B8106D40CE05BEF9F0
:10198000B21334B2EB1A394D3E8D4FCF2DD79A2377
:101990009AB80CFD2ABB48C7050A4766DD62D9968E
:1019A00055851D61B80B35D7E8C01E1FF8CF85B827
:1019B000E63A25D7E7AD1AA96B6E556DF58003F3AE
:1019C000C76CDA551A5929D857AED9C84FFFBFFC92
:1019D000952FE594435E317B39CE1AD1B1553DF256
:1019E000C8DCE0A2E309262A681EA088A7FE9DB2F3
:1019F000E352BB7CEB2073736E64B45B32131B5CED
:101A00004446DBD0A1F9E25D828E796744D3E203DC
:101A10008AABCE220A5C6EAAE7C3C7E7A0E8DE0065
:101A2000B1D0E36B0E783972D0C3C8C38A93120D5C
:101A30005FC30FDE898D320237EEF133242F81949C
:101A400098EFD55F9556D00E47B07E2C5FF4B990D5
:101A50001AAA1FABD4609E7CE9EF46476B5B9BF2F2
:101A6000671DA9F9CC7FFF930A76E686A2D8F0E23B
:101A700055015A8DA97437AFD989ED2DA3EBE0FF3D
:101A8000D0911D67D08101ADE0DDBC8E558F0886F9
:101A90004E6FCA8AE1633628B90985427A1174A16A
:101AA0000CF1B6BDBBD10E4A8C1B1A1B38108686B2
:101AB000E55087A8B9CFA722203ABD852A48306AC9
:101AC000DDD47677441DE6AD76EA63949EFF2A76F0
:101AD00089D6A5EB333B634F156B923DA8E1C90452
:101AE000D4AB92304A02170302507F221CA1CA7E57
:101AF00016AFC3EC2D759261157AD86021C9516E6D
:101B00008C3AE18AF60E96BAB411CB50872A5C0C57
:101B100075F7B96FB5267B92E8A0B284F89314D517
:101B20004177C1D9541AB9B5378F94088818E9A4F8
:101B3000222AF98C002E905403108E6BE208995AD9
:101B400091D11D3EB4C44CC8D216544A4E756E4253
:101B50005FEC82172DF63105313EC36206B6680090
:101B60005D718698AA4B6501866296DCB19224FB72
:101B7000211B4B7AE632644EE92A6E044947965996
:101B80001A7DCCED994770A01DA1D3801582023338
:101B90008EE11D6B6A36000362C8913A9926307354
:101BA000131064DE880780B14CE48A470E625A89BC
:101BB0008C2B7C4844446321DFD1C63F37999D7507
:101BC000B8F54841F00A68803091645471FF2325CC
:101BD0005CAE9D3B0BE3BB4C350455CE110E66BB92
:101BE000030F8664ADDDC5B13A1335D53C66F8D137
:101BF000AE18AB585B39447CBCE627860254A55B23
:101C000098A120077994B7B493183662214A6B5291
:101C1000503385A414119AA724667512EF0CAA4DAF
:101C20002B5A6141FFD40D4342B3204F229BE9D090
:101C3000A320A80234A56025632703914579027388
:101C400021DFA3862A1DFA55B14AC614810C8D5C8A
:101C5000FF10021BFD444F550DAB5AB6988B8C58A4
:101C60002C04DA88C01A61111685AC68ACB394896B
:101C7000F2A01258A41222582DC02BB3C42AD9C4E2
:101C8000CEF1A52B39067A0473BBBD4A961B6201BF
:101C90000146B670144595691B5DB2D627221BA17B
:101CA0005BEDF51C8ABD882C6B51D6131CE724A074
:101CB000E98E8964E9D0CBE2E5B6587562637BE1D1
:101CC00096FE8DCDB51FFD6DB2BAE5C4DA5BE64672
:101CD0001D88E85F0879EB155F22E6B82B134535C0
:101CE00041F8969EC290B1CAA34B4B032B50634060
:101CF00041109AB98875496BC6C69A964CE8156F1B
:101D00005F6F75D6F6BA77A9A0026F47EBA9D4FB2F
:101D10009E9689060BB073FD6B94F3F697C08DDD2C
:101D2000A97D114C5EE4213801003B25454E444815
:101D30005454502F312E302032303020446F637590
:101D40006D656E7420666F6C6C6F77730D0A5365EA
:101D5000727665723A204156525F536D616C6C5FCA
:101D60005765627365727665720D0A436F6E7465AE
:101D70006E742D547970653A20746578742F706C88
:101D800061696E0D0A0D0A00485454502F312E30EF
:101D90002032303020446F63756D656E7420666F3D
:101DA0006C6C6F77730D0A5365727665723A2041D9
:101DB00056525F536D616C6C5F57656273657276E6
:101DC00065720D0A436F6E74656E742D547970657B
:101DD0003A20746578742F68746D6C0D0A0D0A00D2
:101DE000485454502F312E302034303120556E61FC
:101DF0007574686F72697A65640D0A5365727665E9
:101E0000723A204156525F536D616C6C5F57656248
:101E10007365727665720D0A5757572D4175746850
:101E2000656E7469636174653A2042617369632009
:101E30007265616C6D3D224E6565645061737377A8
:101E40006F7264220D0A436F6E74656E742D54793F
:101E500070653A20746578742F68746D6C0D0A0D86
:101E60000A00485454502F312E3020323030204454
:101E70006F63756D656E7420666F6C6C6F77730D34
:101E80000A5365727665723A204156525F536D610E
:101E90006C6C5F5765627365727665720D0A436F8D
:101EA0006E74656E742D547970653A20696D616742
:101EB000652F6A7065670D0A0D0A00485454502F4B
:101EC000312E302032303020446F63756D656E7472
:101ED00020666F6C6C6F77730D0A5365727665724E
:101EE0003A204156525F536D616C6C5F5765627367
:101EF00065727665720D0A43616368652D436F6E86
:101F000074726F6C3A206D61782D6167653D363073
:101F10003030303030436F6E74656E742D5479708C
:101F2000653A20696D6167652F6769660D0A0D0A5C
:101F300000485454502F312E302032303020446F1E
:101F400063756D656E7420666F6C6C6F77730D0AC8
:101F50005365727665723A204156525F536D616CDB
:101F60006C5F5765627365727665720D0A436163D3
:101F700068652D436F6E74726F6C3A206D61782DB9
:101F80006167653D36303030303030436F6E746598
:101F90006E742D547970653A20746578742F63736C
:101FA000730D0A0D0A0034303120556E6175746866
:101FB0006F72697A656425454E44006C65646F668E
:101FC000662E676966006C65646F6E2E67696600D1
:101FD0000000636865636B656400504F53540053A1
:101FE000746172742054656C6E65742053657276EA
:101FF00065723A0D0A002A2A204C43442044415479
:1020000041204745542042797465733A2025692060
:102010002A2A0D0A00474554202F20485454502F97
:10202000312E3120200D0A20486F73743A77686191
:102030007469736D7969702E6F72670D0A20436F32
:102040006E6E656374696F6E3A20636C6F73650DB5
:102050000A000A0D48545450204745542073656EB9
:1020600074200D0A005443502045696E74726167F4
:1020700020676566756E64656E2028485454505F0D
:10208000434C49454E5429210D0A005443502045E4
:10209000696E74726167206E696368742067656633
:1020A000756E64656E2028485454505F434C494512
:1020B0004E5429210D0A0041525020526571756518
:1020C000737420746F20485454502055524C0A0D9C
:1020D0000025630011241FBECFE5D8E0DEBFCDBFD1
:1020E00012E0A0E6B0E0EAE0FFE702C005900D9242
:1020F000AA39B107D9F716E0AAE9B2E001C01D92EA
:10210000A73CB107E1F70E9449120C94833F0C945D
:10211000000092E896B9806487B985E38A95F1F763
:10212000369A349BFECF349825B184B130E02370C9
:102130003070322F2227280F311DC901089595983C
:102140009AE0292F2A95F1F79698292F2A95F1F7E9
:1021500085BB892F8A95F1F7949A892F8A95F1F793
:102160009498892F8A95F1F7969A9A95F1F7959A0E
:1021700085E38A95F1F70895959A9AE0292F2A9593
:10218000F1F79698292F2A95F1F785BB892F8A9523
:10219000F1F7949A892F8A95F1F794989A95F1F727
:1021A000969A85E38A95F1F708951F9380E991E067
:1021B00020E931E0F9013197F1F70197D9F788E388
:1021C0000E949F1015ED812F8A95F1F78FE00E94F4
:1021D0009F101A95F1F781E00E949F1080E991E02D
:1021E00020E931E0F9013197F1F70197D9F786E05D
:1021F0000E949F1085ED8A95F1F71F91089584E55F
:102200000E94BC1085E60E94BC1083E70E94BC10AF
:1022100084E70E94BC108EE20E94BC1080E090E037
:1022200008953F924F925F926F927F928F929F920A
:10223000AF92BF92CF92DF92EF92FF920F931F93D4
:10224000CF93DF933B01979A25B5296125BD2EE6F3
:1022500023BD979A25B52F7E25BD25B5206225BDC6
:1022600025B5216025BDE0EAFFE03197F1F725B5FE
:102270002F7D25BD25B5206125BDF8944C01C0E01A
:10228000D0E040E9442E41E0542E33243394E4C09E
:10229000F40180819181F3E081329F0708F45FC0EF
:1022A00096958795BC0180E090E00E9484385B01A0
:1022B0006C012BEA3AEA4AEA50E40E943A397B017F
:1022C0008C0120E030E040E85FE30E94EC37882397
:1022D0000CF464C0C801B70120E030E04FE753E4DC
:1022E0000E94363918160CF0A9C0C601B50120E0CD
:1022F00030E04AE754E40E94F0375B016C0120E0D3
:1023000030E04AE755E40E943A397B018C0120E035
:1023100030E040E85FE30E94EC3788230CF465C0AE
:10232000C801B70120E03FEF4FE757E40E9436397C
:1023300018160CF07BC0C601B50120E030E040E289
:1023400051E40E943A390E94583805C0C2010197F1
:10235000F1F76150704061157105C1F775C064E116
:1023600070E00E94E63923E0660F771F2A95E1F7B7
:1023700080E090E00E9484385B016C012BEA3AEA2D
:102380004AEA50E40E943A397B018C0120E030E0B7
:1023900040E85FE30E94EC37882314F461E052C008
:1023A000C801B70120E030E04FE753E40E9436391E
:1023B00018160CF043C0C601B50120E030E04AE732
:1023C00054E40E94F0375B016C0120E030E04AE702
:1023D00055E40E943A397B018C0120E030E040E86E
:1023E0005FE30E94EC3788231CF461E070E022C0B8
:1023F000C801B70120E03FEF4FE757E40E943639AC
:102400001816A4F4C601B50120E030E040E251E422
:102410000E943A390E94583805C0C2010197F1F76D
:102420006150704061157105C1F70EC0C801B70158
:102430000E945838CB010197F1F706C0C801B701D7
:102440000E9458386A95F1F785B5832585BD219698
:1024500082E090E0880E991EC615D70508F418CFC3
:1024600085B58E7F85BD9798789480E090E0DF9168
:10247000CF911F910F91FF90EF90DF90CF90BF9081
:10248000AF909F908F907F906F905F904F903F9014
:1024900008952F923F924F925F926F927F928F9208
:1024A0009F92AF92BF92CF92DF92EF92FF920F93E3
:1024B0001F93DF93CF93CDB7DEB7ED970FB6F894A8
:1024C000DEBF0FBECDBF87E08ABB8FEF84BB80EF3E
:1024D00081BBD89A949A0E94D5100E94FF1060E0A8
:1024E00072EC81E090E00E94641787E00E948910FE
:1024F0008C0100D08EEF91E0ADB7BEB712969C93E1
:102500008E9311970E9495168BED91E0EDB7FEB773
:10251000928381830E94951684EB91E0ADB7BEB79C
:1025200012969C938E9311970E94951629B100D014
:10253000EDB7FEB731968BE991E0ADB7BEB7129615
:102540009C938E931197228313820E94951600D03C
:10255000EDB7FEB7319681E791E0ADB7BEB7129601
:102560009C938E93119787E090E09383828301512F
:10257000104016950795158304830E94951680E0F8
:1025800090E0A0E0B0E0EDB7FEB736960FB6F89455
:10259000FEBF0FBEEDBF00000196A11DB11D80342E
:1025A000F2E49F07FFE0AF07F0E0BF07A1F70E944A
:1025B000E6250E9483340E94E1358BB780628BBF91
:1025C00078942DB73EB72A5030400FB6F8943EBFEE
:1025D0000FBE2DBFEDB7FEB7319688E591E0ADB7E0
:1025E000BEB712969C938E93119780913406828386
:1025F0001382809135068483158280913606868306
:10260000178280913706808711860E949516EDB754
:10261000FEB7319681E491E0ADB7BEB712969C93B8
:102620008E93119780913C068283138280913D06A0
:102630008483158280913E068683178280913F06AF
:10264000808711860E949516EDB7FEB731968AE213
:1026500091E0ADB7BEB712969C938E93119780917F
:102660003806828313828091390684831582809193
:102670003A068683178280913B06808711860E94E6
:102680009516EDB7FEB73A960FB6F894FEBF0FBE9B
:10269000EDBF84E396E060E676E04AE151E02EE1AA
:1026A00031E00CE21AE0FAE4EF2EF9E3FF2EE4E267
:1026B000CE2EE1E0DE2EB0E1AB2EB12C0E94901DBB
:1026C00000D082E191E0ADB7BEB712969C938E9395
:1026D00011970E9495160F900F900E9422290E9438
:1026E00074248091440690914506892B09F413C205
:1026F000B091F503BBAFE091F603EAAF00D000D094
:1027000000D0EDB7FEB731962CEF30E0ADB7BEB7D5
:1027100012963C932E9311978091DB038283138250
:102720008091DC03848315820E9495168091D503E5
:10273000809328068091D603809329068091D70341
:1027400080932A068091D80380932B068091D90329
:1027500080932C068091DA0380932D068091E90303
:10276000809340068091EA03809341068091EB03B9
:10277000809342068091EC03809343069090F1038E
:10278000E090F2038090F303F090F403DE015B9697
:10279000E7E6F0E08FE001900D928150E1F7DE0175
:1027A0001196E6E7F0E087E001900D928150E1F7A5
:1027B000DE011896EDE7F0E088E001900D9281507F
:1027C000E1F7DE015096E5E8F0E08BE001900D9234
:1027D0008150E1F78DB79EB706960FB6F8949EBF6D
:1027E0000FBE8DBF8091DB03883009F090C18091CE
:1027F000DC03882309F08BC100D0E8EEF0E0ADB730
:10280000BEB71296FC93EE9311970E9495160FECAB
:1028100013E0AA24BB2465010F900F9033C000D0B1
:1028200000D0EDB7FEB7319622EE30E0ADB7BEB7BF
:1028300012963C932E931197D8018C918283138228
:102840000E949516D601C5018F709070A070B0706F
:102850000F900F900F900F900F97A105B10559F4AD
:1028600000D02FED30E0EDB7FEB7328321830E9418
:1028700095160F900F900894A11CB11CC11CD11C7F
:102880000F5F1F4F2091440630914506C901A0E01B
:10289000B0E0A816B906CA06DB0608F4C0CF392C8A
:1028A000222431016E0C711C582C442442018F0CDF
:1028B000911C8091FB03833709F0A6C08091F90336
:1028C000803309F052C08BAD8DAF1CAE0CAD1DAD89
:1028D0009AAD090F111D0E5010407801F694E7943F
:1028E000025F1F4F00D000D0E2EBF0E0ADB7BEB703
:1028F0001296FC93EE93119714963C932E93139794
:102900000E94951600D0EDB7FEB7319628E830E06A
:10291000ADB7BEB712963C932E93119713830283E3
:10292000F582E4820E9495168DB79EB706960FB683
:10293000F8949EBF0FBE8DBF8FEF93E0B7010E944A
:10294000111184E396E060E676E040E456E028E288
:1029500036E084017301F0E1CF2ED12CCC0EDD1EC8
:10296000EBE0AE2EB12C0E94901D8091F9038133D3
:10297000A1F4D89A84E396E060E676E040E456E07D
:1029800028E236E0840173016E010894C11CD11C59
:10299000B7E0AB2EB12C0E94901D8091F9038233D9
:1029A000A9F4D89884E396E060E676E040E456E047
:1029B00028E236E084017301A8E0CA2ED12CCC0EA7
:1029C000DD1EF8E0AF2EB12C0E94901D8091F9031E
:1029D000833309F09CC080E990E063E470E00E94DA
:1029E000111184E396E060E676E040E456E028E2E8
:1029F00036E084017301E0E1CE2ED12CCC0EDD1E39
:102A0000BBE0AB2EB12C81C08091F9038033A1F4DF
:102A100084E396E060E676E040E456E028E236E0C3
:102A200084017301ABE1CA2ED12CCC0EDD1EFFE078
:102A3000AF2EB12C0E94901D8091F903813399F43F
:102A400084E396E060E676E040E456E028E236E093
:102A5000840173016E010894C11CD11CE7E0AE2E05
:102A6000B12C0E94901D8091F9038233A1F484E37C
:102A700096E060E676E040E456E028E236E0840145
:102A80007301B8E0CB2ED12CCC0EDD1EA8E0AA2E0F
:102A9000B12C0E94901D8091F9038333C1F587E02A
:102AA0000E94891000D000D000D0EDB7FEB731965B
:102AB0002AE230E02C0F3D1FADB7BEB712963C9313
:102AC0002E931197A0E6B0E0B383A283419795833C
:102AD00084830E94663CEDB7FEB736960FB6F89435
:102AE000FEBF0FBEEDBF84E396E060E676E040E413
:102AF00056E028E236E084017301FAE2CF2ED12CB1
:102B0000CC0EDD1EE0E1AE2EB12C0E94901D109285
:102B10004506109244068091100380FF29C000D022
:102B2000ECE7F0E0ADB7BEB71296FC93EE931197C9
:102B30000E9495160F900F908DE993E00E94BC2B98
:102B4000882321F000D0E4E7F0E003C000D0ECE6F9
:102B5000F0E0ADB7BEB71296FC93EE9311970E94CA
:102B600095160F900F90809110038E7F8093100325
:102B70000E94903480913306882309F4B0CD2DB79C
:102B80003EB72A5030400FB6F8943EBF0FBE2DBF5F
:102B9000EDB7FEB7319624E530E0ADB7BEB712967B
:102BA0003C932E93119780912E06828313828091FD
:102BB0002F06848315828091300686831782809148
:102BC0003106808711860E949516109233068DB7C4
:102BD0009EB70A960FB6F8949EBF0FBE8DBF7FCDED
:102BE000982F8091100382FD03C05D9BFECF9CB99E
:102BF0000895CF93DF93EC0103C021960E94F01556
:102C000088818823D1F7DF91CF9108951F920F9289
:102C10000FB60F9211241F932F933F934F935F93FF
:102C20006F937F938F939F93AF93BF93EF93FF9394
:102C30008091100382FD4BC01CB1812F0E94F015C2
:102C40008091100380FF04C080911003826028C02F
:102C5000183069F480919A0290919B02892B09F4B3
:102C600052C080919A0290919B0201972BC01D3017
:102C7000D1F4E0919A02F0919B02E456FC4F8081DE
:102C80008C3589F0E0919A02F0919B02E356FC4F5B
:102C9000108210929B0210929A0280911003816020
:102CA0008093100330C080919A0290919B02C1974B
:102CB00050F580919A0290919B02FC01E356FC4FE3
:102CC0001083019690939B0280939A021CC02091DE
:102CD0001601309117018091180190911901019707
:102CE0002817390781F08CB1F9018193F09317010E
:102CF000E0931601EE5CF34031F420533040309302
:102D0000170120931601FF91EF91BF91AF919F9111
:102D10008F917F916F915F914F913F912F911F9173
:102D20000F900FBE0F901F9018956F927F928F9209
:102D30009F92AF92BF92CF92DF92EF92FF920F934A
:102D40001F93DF93CF93CDB7DEB764970FB6F89498
:102D5000DEBF0FBECDBF8E010B5D1F4FF801E190AE
:102D6000F1908F01BB243E010894611C711C4BE063
:102D7000842E912C8C0E9D1E30E3A32E02C0680180
:102D80008601F7018491882309F489C00894E11C25
:102D9000F11C853209F080C0F7010894E11CF11C98
:102DA0002491822F90E0C0970A9710F0822F0BC0D9
:102DB0002B871C86C4010E944B3BB82EF701089458
:102DC000E11CF11C8491893671F08A3628F4823630
:102DD00061F08336A1F61DC0833749F0883729F1A9
:102DE0008F3669F620C04AE021C042E01FC022E0D1
:102DF000C22ED12CC00ED11EF8010081118104C059
:102E00000F5F1F4F0E94F015F80180818823C1F7E2
:102E1000B7CF92E0C92ED12CC00ED11EF80180810F
:102E20000E94F015ADCF48E001C040E182E0C82E1D
:102E3000D12CC00ED11EF80180819181B30150E0E8
:102E40000E943D3C20E030E0A9014F5F5F4FF3015D
:102E5000E20FF31F8081882311F09A01F5CF8B2DAB
:102E600090E0281739079CF4B21AF401C4018B0DC5
:102E7000911D01C0A192E817F907E1F71082C40182
:102E8000B3010E94083CC301B4010E94133CC3017A
:102E90000E94F915BB2474CF0E94F01570CF649680
:102EA0000FB6F894DEBF0FBECDBFCF91DF911F915B
:102EB0000F91FF90EF90DF90CF90BF90AF909F90D9
:102EC0008F907F906F90089528E92AB90E948438E6
:102ED0009B01AC0160E074E284E79BE40E94F03760
:102EE00020E030E040E85DE30E943A3920E030E045
:102EF00040E85FE30E9487370E949D390E9458385E
:102F000069B9599A809110038B7F809310030895BB
:102F1000282F892F922F0895EF92FF920F931F93DE
:102F2000162F0027FF24EE24292F33274427552767
:102F3000E20EF31E041F151F9B01AC0120703070C0
:102F40005070232F342F452F5527E20EF31E041FF8
:102F5000151F607080709070982F872F762F6627CE
:102F6000E60EF71E081F191FB701C8011F910F9128
:102F7000FF90EF90089540E050E09A01220F331F38
:102F8000240F351FD901AA0FBB1FAA0FBB1FAF52B9
:102F9000BD4F1A968D919C911B97892B09F51C9218
:102FA00011961C921197F901EE0FFF1FEE0FFF1FF4
:102FB000ED52FD4F108213961C921397F901EE0FFC
:102FC000FF1FEE0FFF1FEB52FD4F108215961C9254
:102FD000159716961D921D921D921C92199709C065
:102FE0001A968D919C911B9701971B969C938E939B
:102FF0001A974F5F5F4F4530510509F0BECF0895D6
:10300000AC0120E001C02F5FA22FB0E0FD01EE0F68
:10301000FF1FEE0FFF1FE456FD4F80819181892B2A
:1030200091F7253050F451834083AA0FBB1FAA0F9C
:10303000BB1FA256BD4F6D937C93089520E001C045
:103040002F5FA22FB0E0FD01EE0FFF1FEE0FFF1F5D
:10305000E456FD4F0190F081E02D309719F0E8170C
:10306000F90771F7253040F4AA0FBB1FAA0FBB1F49
:10307000A456BD4F6D937C930895AC0120E001C030
:103080002F5FA22FB0E0FD01EE0FFF1FEE0FFF1F1D
:10309000E055FD4F80819181892B91F7253050F4C7
:1030A00051834083AA0FBB1FAA0FBB1FAE54BD4F55
:1030B0006D937C9308959C01E0EBF2E08081918117
:1030C0008217930711F411821082349682E0E43C57
:1030D000F807A1F708951F920F920FB60F921124CF
:1030E0008F9380910F03816080930F031092980358
:1030F000109297038BB78F7D8BBF8F910F900FBE70
:103100000F901F9018950F931F93CF93DF9300910B
:10311000DB031091DC0360E070E086E00830180704
:10312000C1F4FB01EE0FFF1FE60FF71FEE0FFF1FAD
:10313000EE0FFF1FEF52FD4F2681378140855185ED
:103140008091EB039091EC03A091ED03B091EE031D
:103150001AC00830110509F5FB01EE0FFF1FE60F3D
:10316000F71FEE0FFF1FEE0FFF1FEF52FD4F2681DF
:103170003781408551858091E9039091EA03A091C0
:10318000EB03B091EC03281739074A075B0729F4D2
:1031900084E690E09387828788C06F5F7F4F6530B9
:1031A000710509F0BACF20E030E0A901440F551FA6
:1031B000420F531FEA01CC0FDD1FCC0FDD1FCF5292
:1031C000DD4FBE016A5F7F4F8E819F81A885B985E3
:1031D0000097A105B10509F062C0E6E008301E07BE
:1031E00049F58091D50388838091D60389838091A6
:1031F000D703FA01EE0FFF1FEE0FFF1FED52FD4F39
:1032000080838091D8038B838091D903FA01EE0FDC
:10321000FF1FEE0FFF1FEB52FD4F80838091DA03FB
:103220008D838091EB039091EC03A091ED03B0911D
:10323000EE032BC008301105C1F58091D5038883BA
:103240008091D60389838091D703FA01EE0FFF1F87
:10325000EE0FFF1FED52FD4F80838091D8038B83CB
:103260008091D903FA01EE0FFF1FEE0FFF1FEB5203
:10327000FD4F80838091DA038D838091E9039091E3
:10328000EA03A091EB03B091EC03FB0180839183EF
:10329000A283B38384E690E09B878A8706C02F5F72
:1032A0003F4F2530310509F080CFDF91CF911F913D
:1032B0000F9108951F93AB01BC0120E030E0122F65
:1032C000F901EE0FFF1FE20FF31FEE0FFF1FEE0FCE
:1032D000FF1FEF52FD4F86819781A085B18584172E
:1032E0009507A607B70731F02F5F3F4F253031050F
:1032F00031F715E0812F1F910895FF920F931F93CF
:10330000182F092F20E030E0F22EF901EE0FFF1FF9
:10331000E20FF31FEE0FFF1FEE0FFF1FEF52FD4FE7
:1033200086819781A085B18584179507A607B70781
:1033300031F02F5F3F4F2530310531F726C0212F67
:10334000302FC901DC0140E050E08F2D90E09C015E
:10335000220F331F280F391F220F331F220F331F55
:10336000F901E40FF51FEF52FD4F80818C93FA01B4
:10337000E05AF94F808116968C9316974F5F5F4FF6
:1033800011964630510561F70FC0A0E6B6E0812FD7
:10339000902F9C01F9019FEF90838D918683319648
:1033A00086E0A636B807C1F71F910F91FF900895E8
:1033B000EF92FF920F931F93CF93DF937C018B01CA
:1033C000EC0111C0888199812296F82FE0E0DF019D
:1033D000A90FB11DCD01A0E0B0E0280F391F4A1F91
:1033E0005B1F625070406230710560F7F801EE7F3C
:1033F000EE0DFF1D00FF08C0908180E0A0E0B0E06E
:10340000280F391F4A1F5B1FCA01AA27BB2740701C
:103410005070820F931FA41FB51F9D01442755278D
:10342000A070B070280F391F4A1F5B1F2095309580
:10343000C901DF91CF911F910F91FF90EF900895F7
:10344000AF92BF92CF92DF92EF92FF920F931F93B2
:103450007C015A016B018C01025F1F4F0E947D1994
:1034600088E090E0F701958784872091C40230912D
:10347000C5022F5F3F4F3093C5022093C40280E402
:1034800090E0F8019783868380E8808734832583E2
:1034900085E4F7018687F8011182A08AB18AC28A81
:1034A000D38A8091340690913506A0913606B0916A
:1034B000370684879587A687B78713861286C80143
:1034C00064E170E020E030E040E050E00E94D81974
:1034D000F801928783871F910F91FF90EF90DF9003
:1034E000CF90BF90AF900895AF92BF92CF92DF92EE
:1034F000EF92FF920F931F93CF93DF938C01EC0118
:10350000A296BC01625F7F4FDB011C96CD90DD90DF
:10351000ED90FC901F9740E050E0E6E1AE2EB12C1C
:103520004A9DF0014B9DF00D5A9DF00D1124EE5E69
:10353000FC4F80819181A281B3818C159D05AE05E0
:10354000BF0509F056C024813581888199812817EB
:10355000390709F04EC088859985AA85BB85808783
:103560009187A287B3878C819D81AE81BF8184873B
:103570009587A687B7878D85808B83898F3F11F0CC
:1035800083E0838BFB01F280E3808CEE9FEFE80EFB
:10359000F91E8C8590E0807F907095958795959524
:1035A0008795E81AF90A00E010E086E190E0489F6C
:1035B0006001499FD00C589FD00C1124A2E1B3E0C8
:1035C000CA0EDB1EF60164857585868597850E9487
:1035D0008C17E60EF71E081F191FC801B7010E94BD
:1035E0008C17D6011C966D937D938D939C931F979A
:1035F0004FC04F5F5F4F4530510509F091CF20E03C
:1036000030E066E170E0269FA001279F500D369FB5
:10361000500D1124FA01EE5EFC4F80819181A28150
:10362000B3810097A105B10569F5C082D182E2821C
:10363000F382D80192968D919C9193979583848380
:103640008A819B819783868388859985AA85BB8596
:1036500080879187A287B3878C819D81AE81BF814E
:1036600084879587A687B7878D85808B128A118A74
:1036700083E0838B148AFA01E95DFC4F80818E7FA1
:10368000808306C02F5F3F4F2530310509F0BBCF47
:10369000DF91CF911F910F91FF90EF90DF90CF902E
:1036A000BF90AF900895EF92FF920F931F93CF9327
:1036B000DF937B018C0120E030E0C6E1D0E0622F97
:1036C0002C9FF0012D9FF00D3C9FF00D1124EE5E1C
:1036D000FC4F80819181A281B3818E159F05A00747
:1036E000B10729F4848195818417950731F02F5F04
:1036F0003F4F2530310519F765E0862FDF91CF91D7
:103700001F910F91FF90EF90089520E001C02F5F6F
:10371000A22FB0E0FD01EE0FFF1FEE0FFF1FE055DF
:10372000FD4F0190F081E02D309789F09091F303E7
:103730008091F403E817F90751F7AA0FBB1FAA0FEE
:10374000BB1FAE54BD4FED91FC9180E009950895EB
:10375000CF93DF93582FCCE9D2E0E0E0F0E0282FC0
:1037600030E086E190E0289FD001299FB00D389F7E
:10377000B00D1124A85EBC4F8D919C911197382FEC
:10378000292F888199818217930731F031962496E9
:10379000E630F10589F70DC0E53058F4EE0FFF1F54
:1037A000EE0FFF1FE256FD4F0190F081E02D852FB7
:1037B0000995DF91CF910895863038F5282F30E0B4
:1037C00086E190E0289FD001299FB00D389FB00D71
:1037D0001124FD01EE5EFC4F1082118212821382D1
:1037E000158214821782168210861186128613861D
:1037F0001486158616861786108A128A118A138AED
:10380000A95DBC4F8C918E7F8C9308956F927F92AF
:103810008F929F92AF92BF92CF92DF92EF92FF92E0
:103820000F931F93DF93CF93CDB7DEB7EA970FB611
:10383000F894DEBF0FBECDBFB6014501EFE0CE2E3E
:10384000D12CCC0EDD1E682E772486E190E0689E98
:103850005001699EB00C789EB00C112482E193E077
:10386000A80EB91ED5011796FC92EE9216971596E2
:103870001C930E931497A4014150504085E094E0AE
:103880000E94713B8091C4029091C5020196909371
:10389000C5028093C40225E42F87F6011182948328
:1038A00085831782168280E8808782E69FECA2EEED
:1038B000B1E7808B918BA28BB38B80913406909172
:1038C0003506A0913606B091370684879587A6877E
:1038D000B787C60164E170E020E030E040E050E0EE
:1038E0000E94D819D6011A969C931A971B968C930E
:1038F0001B9750968D919D910D90BC91A02DF50137
:1039000080839183A283B3830DED13E08681978139
:103910009093F1038093F203848195819093F30354
:103920008093F403109204041092030481E094EF56
:10393000909300048093FF0380E58093FD036485EA
:103940007585868597850E948C179B01AC01D501F2
:1039500050968C9150978093FE0350968C9181FFE6
:1039600016C02F5F3F4F4F4F5F4F82E0809305049B
:1039700084E08093060481E08093070484EF8093C1
:10398000080480E68093FD0364E0862E912CCA0132
:10399000B9010E948C176093F9037093FA03809326
:1039A000FB039093FC0386E190E0689EF001699E22
:1039B000F00D789EF00D1124EE5EFC4F8085918510
:1039C000A285B3858093F5039093F603A093F70344
:1039D000B093F803C4018896D80112969C9312976D
:1039E00013968C93139756E3E52EF12CE80CF91CF3
:1039F00086E019968C9340815181628173818FECAE
:103A000093E00E94201A1092020410920104709117
:103A1000DF036091E003685F7F4F8091DD0390E0FA
:103A20008F709070880F991F880F991F681B790BF2
:103A3000625070409B0140E050E06E5F7F4F89EE26
:103A400093E00E94D819909301048093020400E04F
:103A500010E034E1A32E32E0B32E21E1C22E22E0A9
:103A6000D22E2AC000D000D0ADB7BEB71196EDB7A8
:103A7000FEB7B282A182F801E153FC4F8081129619
:103A80008C93129713961C920E949516C8018F7002
:103A900090700F900F900F900F900F9759F400D0E7
:103AA000ADB7BEB71296DC92CE9211970E949516D2
:103AB0000F900F900F5F1F4F0E151F0598F200D04B
:103AC0008EE092E0EDB7FEB7928381830E94951657
:103AD0000F900F90C7016FEC73E00E94672E86E194
:103AE00090E0689EF001699EF00D789EF00D112423
:103AF000EE5EFC4F108AEA960FB6F894DEBF0FBE5A
:103B0000CDBFCF91DF911F910F91FF90EF90DF908C
:103B1000CF90BF90AF909F908F907F906F900895BF
:103B20002F923F924F925F926F927F928F929F92CD
:103B3000AF92BF92CF92DF92EF92FF920F931F93BB
:103B4000DF93CF93CDB7DEB7EA970FB6F894DEBF19
:103B50000FBECDBF4B013A01B901302E512E2E2C94
:103B60004F2C9E012F5F3F4F8E01015F1F4F83E25D
:103B7000E82EF12CEC0EFD1EF901CE01CB96119230
:103B8000E817F907E1F7D90140E050E0FB01E40F45
:103B9000F51F80818C93F401E40FF51F8081169648
:103BA0008C9316974F5F5F4F11964630510571F712
:103BB00088E090E0D9011D969C938E931C972091EC
:103BC000C4023091C5022F5F3F4F3093C50220934E
:103BD000C40285E4F8018083118280E09CE2938333
:103BE0008283348325831782168280E8808781E16F
:103BF00081878091340690913506A0913606B09168
:103C0000370684879587A687B787F30180819181DE
:103C1000A281B381F801808B918BA28BB38BC801F9
:103C200064E170E020E030E040E050E00E94D8190C
:103C3000D8011A969C931A971B968C93F701508281
:103C400031824282238280E098E195838483D60189
:103C5000FE01BB969E012A0D3B1D265D3F4F02C013
:103C60008D918193E217F307D9F7D70117961C922C
:103C70001E921697F80172816381685F7F4F808181
:103C800090E08F709070880F991F880F991F681BA4
:103C9000790B675F7F4F9B0140E050E069507040B7
:103CA000C8010C960E94D819D70116969C931697B6
:103CB00017968C9300D000D0EDB7FEB7319625E370
:103CC00032E0ADB7BEB712963C932E931197828324
:103CD00093830E9495160F900F9086E292E0EDB7C5
:103CE000FEB7928381830E94951600E010E00F904A
:103CF0000F90A0E2AA2EA2E0BA2E6E010894C11C79
:103D0000D11CFDE1EF2EF2E0FF2E00D000D0ADB7C8
:103D1000BEB71196EDB7FEB7B282A182F601E00FF1
:103D2000F11F808112968C93129713961C920E9419
:103D30009516C8018F7090700F900F900F900F9094
:103D40000F9759F400D0ADB7BEB71296FC92EE9221
:103D500011970E9495160F900F900F5F1F4F0A3317
:103D6000110599F600D08AE192E0EDB7FEB7928393
:103D700081830E9495160F900F908AE390E0BE0118
:103D80006F5F7F4F0E94672EEA960FB6F894DEBFF2
:103D90000FBECDBFCF91DF911F910F91FF90EF909C
:103DA000DF90CF90BF90AF909F908F907F906F905B
:103DB0005F904F903F902F900895CF92DF92EF92B7
:103DC000FF920F931F93CF93DF93EC013DEDE32E12
:103DD00033E0F32EC62EDD2486E190E0C89E8001FC
:103DE000C99E100DD89E100D11240E5E1C4FF801B7
:103DF000868197819093F2038093F103848195816A
:103E00009093F4038093F30310920404109203043C
:103E100081E094EF909300048093FF0380E580930A
:103E2000FD0364857585868597850E948C179B01A7
:103E3000AC01F80180898093FE03808981FF15C061
:103E40002F5F3F4F4F4F5F4F82E08093050484E028
:103E50008093060481E08093070484EF8093080434
:103E600080E68093FD03C4E0D0E0CA01B9010E945E
:103E70008C176093F9037093FA038093FB0390937C
:103E8000FC0386E190E0C89E8001C99E100DD89E7B
:103E9000100D11240E5E1C4FF80180859185A285BE
:103EA000B3858093F5039093F603A093F703B09343
:103EB000F803CE018896F7019283838386E0818799
:103EC000F80140815181628173818FEC93E00E94FF
:103ED000201A10920204109201047091DF03609185
:103EE000E003685F7F4F8091DD0390E08F709070FA
:103EF000880F991F880F991F681B790B62507040BB
:103F00009B0140E050E06E5F7F4F89EE93E00E949E
:103F1000D8199093010480930204CE01C6966FECE9
:103F200073E00E94672EF801108ADF91CF911F91F4
:103F30000F91FF90EF90DF90CF9008958F929F9216
:103F4000AF92BF92DF92EF92FF920F931F93CF93A6
:103F5000DF937B018C015A0149018BB78F7D8BBFA9
:103F600020E030E046E150E0D22E249FE001259F82
:103F7000D00D349FD00D1124CE5EDC4F8881998105
:103F8000AA81BB810097A105B105F1F4822F0E949F
:103F9000DC1BE882F9820A831B83BD82AC829F828C
:103FA0008E8282ED94E0A0E0B0E088879987AA87AE
:103FB000BB8789E299E0A0E0B0E08C879D87AE875F
:103FC000BF878EE18B8B06C0D3942F5F3F4F253088
:103FD000310551F62D2D30E086E190E0289FF0016B
:103FE000299FF00D389FF00D1124EE5EFC4F82E00A
:103FF000808B80E090E06D2D0E94DD1E8BB780628B
:104000008BBFDF91CF911F910F91FF90EF90DF90C9
:10401000BF90AF909F908F900895682F282F30E029
:1040200086E190E0289FF001299FF00D389FF00D68
:104030001124EE5EFC4F8FEF9FEF928B818B81E11D
:10404000808B80E090E00E94DD1E0895AF92BF92C9
:10405000DF92EF92FF920F931F93CF93DF9320E0B5
:1040600001C02F5F022F10E0F801EE0FFF1FEE0FCF
:10407000FF1FE456FD4F0190F081E02D309709F4C9
:10408000CFC19091F3038091F403E817F90749F742
:104090004091FE03242F30E0C90182719070429755
:1040A00009F065C08FEC93E00E94741A4091E90317
:1040B0005091EA036091EB037091EC030091F103DE
:1040C0001091F203C0E0D0E0A6E1EA2EF12C2C2FF3
:1040D000CE9DF001CF9DF00DDE9DF00D1124EE5E22
:1040E000FC4F80819181A281B38184179507A60737
:1040F000B70729F4848195818017910729F02196CB
:10410000C530D10521F78CC130E086E190E0289FD1
:104110008001299F100D389F100D11240E5E1C4F39
:104120008EE1D80153968C9353971C966D917D9197
:104130008D919C911F970E948C176F5F7F4F8F4FBF
:104140009F4F0E948C17F801648775878687978731
:1041500080E1808B80E090E06C2F0E94DD1E81E08A
:1041600090E0D80152969C938E93519759C142305A
:1041700009F046C08FEC93E00E94741A2091E90385
:104180003091EA034091EB035091EC03C091F103AD
:10419000D091F20360E070E0F6E1EF2EF12C6E9D1D
:1041A000F0016F9DF00D7E9DF00D1124EE5EFC4F31
:1041B00080819181A281B38182179307A407B507FB
:1041C00029F4848195818C179D0731F06F5F7F4FB3
:1041D0006530710521F724C1262F30E086E190E09B
:1041E000289FF001299FF00D389FF00D1124EE5EFD
:1041F000FC4F82E1808B80E090E00E94DD1E10C1C8
:104200004091E9035091EA036091EB037091EC0354
:10421000E090F103F090F203C0E0D0E0E6E1AE2ED2
:10422000B12CDC2ECA9DF001CB9DF00DDA9DF00D76
:104230001124EE5EFC4F80819181A281B3818417AD
:104240009507A607B70729F4848195818E159F05E8
:1042500029F02196C530D10521F7DDC08FEC93E020
:104260000E94741A4C2F50E086E190E0489FF001C4
:10427000499FF00D589FF00D1124EE5EFC4F808990
:1042800080FF2BC02DC08FEC93E00E94741A6091C8
:104290008C0370918D0380918E0390918F030E9407
:1042A0008C176F5F7F4F8F4F9F4F0E948C176093CB
:1042B0008C0370938D0380938E0390938F03809172
:1042C000900380FF08C080E18093900380E090E03D
:1042D00065E00E94DD1E85E034C0808982FF34C025
:1042E00086E190E0489FE001499FD00D589FD00D96
:1042F0001124CE5EDC4F6C857D858E859F850E9466
:104300008C176F5F7F4F8F4F9F4F0E948C176C876A
:104310007D878E879F87888980FF12C0000F111FBD
:10432000000F111F02561D4FD801ED91FC918D2DEC
:10433000099581E1888B80E090E06D2D0E94DD1E63
:104340008D2D0E94DC1B6CC0808983FF15C0808985
:1043500084FF12C0818992890196928B818B88E1BA
:10436000808B000F111F000F111F02561D4FD80127
:10437000ED91FC918C2F4DC086E190E0489F90011B
:10438000499F300D589F300D1124F901EE5EFC4F0E
:10439000808984FF0AC0F901E95DFC4F808180FDBE
:1043A00004C08081816080833BC086E190E0489FAB
:1043B000F001499FF00D589FF00D1124DF01AE5E12
:1043C000BC4F50968C91509784FF2AC0E95DFC4FFA
:1043D000808180FF25C051968D919C9152978F5F6F
:1043E0009F4FF1F080E150968C93509751968D91AC
:1043F0009C915297019652969C938E935197000FE1
:10440000111F000F111F02561D4FD801ED91FC9195
:104410008D2D099505C025703070232B09F033CF01
:10442000DF91CF911F910F91FF90EF90DF90BF90A0
:10443000AF900895EF92FF920F931F93CF93DF9366
:10444000C0E0D0E006E110E093E0E92E84E1F82E30
:10445000C09FF001C19FF00DD09FF00D1124EE5EC2
:10446000FC4F8389882319F580819181A281B381D2
:104470000097A105B10509F1E38A84898F5F848BD8
:104480008150863080F08BB78F7D8BBFF08A80E0C3
:1044900090E06C2F0E94DD1E8BB780628BBF8C2F4B
:1044A0000E94DC1B0AC08C2F0E94A81B06C08389B7
:1044B0008F3F19F083898150838B2196C530D105B8
:1044C00039F6DF91CF911F910F91FF90EF900895F2
:1044D0008F929F92AF92BF92CF92DF92EF92FF9214
:1044E0000F931F935C01F1EFCF2EF3E0DF2EECEE84
:1044F000EE2EEFEFFE2EEC0CFD1C7093F10360939B
:10450000F2035093F3034093F40308969093F5035A
:104510008093F603C5014C96F7019283838381E172
:1045200081874EED842E4FEF942E8C0C9D1CC40180
:10453000B901A8010E94201A1092F8031092F70303
:10454000F70172816381685F7F4F808190E08F7097
:104550009070880F991F880F991F681B790B675FF0
:104560007F4F9B0140E050E069507040C6010897C2
:104570000E94D8199093F7038093F803C5018A9697
:10458000B4010E94672E1F910F91FF90EF90DF9072
:10459000CF90BF90AF909F908F9008956F927F9231
:1045A0008F929F92AF92BF92CF92DF92EF92FF9243
:1045B0000F931F933B014C018DEDA82E83E0B82E85
:1045C000B4E1CB2ED12CCA0CDB1C4093F103F601D5
:1045D0002183F582E482178306831382128280E0AE
:1045E00094E59093E0038093DF0381E08093E603FA
:1045F00082EF9FEFA80EB91EC501B401A3010E946E
:10460000201A7091DF036091E0038091DD0390E058
:104610008F709070880F991F880F991F681B790BF6
:10462000C60120E030E040E050E00E94D819F601D9
:104630009283838382E690E0B5010E94672E1F91EA
:104640000F91FF90EF90DF90CF90BF90AF909F9031
:104650008F907F906F9008950F931F938091DD034B
:104660009091DE038050914009F0C1C08091DF033A
:104670009091E003089709F0BAC08091E103863079
:1046800009F0B5C08091E203843009F0B0C02091F8
:10469000F5033091F6034091F7035091F8038091B0
:1046A000340690913506A0913606B091370628174A
:1046B00039074A075B0709F09AC08091E30390919C
:1046C000E403E1E080309E0709F08CC00E9483186B
:1046D0000DED13E00E5010404091EB035091EC03B0
:1046E0006091ED037091EE03C8010E947D1988E08E
:1046F00096E0F801958784874091EB035091EC0395
:104700006091ED037091EE0320E030E0F901EE0FCF
:10471000FF1FE20FF31FEE0FFF1FEE0FFF1FEF5201
:10472000FD4F86819781A085B18584179507A607DF
:10473000B70731F02F5F3F4F2530310539F725C0DE
:10474000ADEDB3E040E050E0822F90E09C01220FFD
:10475000331F280F391F220F331F220F331FF90178
:10476000E40FF51FEF52FD4F808152968C935297C4
:10477000FA01E05AF94F808118968C9318974F5F91
:104780005F4F11964630510551F780E092E09093CB
:10479000E4038093E3038091EB039091EC03A091F9
:1047A000ED03B091EE038093F5039093F603A0938D
:1047B000F703B093F8038091340690913506A091E9
:1047C0003606B09137068093EB039093EC03A093E9
:1047D000ED03B093EE038CE390E06FEC73E00E9486
:1047E000672E05C08050924011F40E9483181F91DB
:1047F0000F910895EF92FF920F931F938091DB0327
:104800009091DC0326E08830920719F40E942C2353
:1048100066C0089709F063C02091ED033091EE0364
:104820004091EF035091F00380913406909135064A
:10483000A0913606B0913706281739074A075B075B
:1048400009F042C00E9483188091E6038130B9F5D7
:104850008091F1038823C1F0883009F040C0609155
:10486000E9037091EA038091EB039091EC030091CE
:10487000F7031091F803E090F503F090F60340E0A1
:1048800020E00E94CE222BC020912E0630912F06D0
:1048900040913006509131068091E9039091EA03EE
:1048A000A091EB03B091EC03281739074A075B0787
:1048B000B1F48091330681608093330610C0863056
:1048C00041F40E94262005C02F5F3F4F4F4F5F4F9E
:1048D00031F48091E603813111F40E94851B1F9110
:1048E0000F91FF90EF90089580910F0381FF09C011
:1048F0000E941A220E94BB1780910F038D7F809324
:104900000F0380910F0380FD13C0089588E592E0A6
:104910006FEC73E00E94CF2DFC01909345068093CD
:104920004406009729F0E153FC4F11820E94FA23BC
:10493000B29BECCF80910F038E7F80930F038BB7D8
:1049400080628BBF08958F929F92AF92BF92CF9259
:10495000DF92EF92FF920F931F93DF93CF93CDB728
:10496000DEB7AA970FB6F894DEBF0FBECDBF4B01DE
:104970005C018E01015F1F4F8091340690913506D6
:10498000A0913606B091370688259925AA25BB2522
:1049900020913C0630913D0640913E0650913F06E5
:1049A00082239323A423B5230097A105B10519F40D
:1049B0007501640108C0C0903806D0903906E090B7
:1049C0003A06F0903B0688E096E09E878D87CE0100
:1049D0000196B701A6010E947D198091340690913D
:1049E0003506A0913606B0913706F801868797877D
:1049F000A08BB18BC08ED18EE28EF38EA0E6B6E096
:104A00008D918087128A319626E0A636B207C1F7CB
:104A100020E031E0F8013183208388E090E0938347
:104A2000828386E0848384E08583378326838AE2D9
:104A300090E0BE016F5F7F4F0E94672E10E05AC06A
:104A4000422FF901EE0FFF1FE20FF31FEE0FFF1FC2
:104A5000EE0FFF1FEF52FD4F86819781A085B18534
:104A600088159905AA05BB0531F02F5F3F4F25300A
:104A7000310531F745E020E030E0F901EE0FFF1F8E
:104A8000E20FF31FEE0FFF1FEE0FFF1FEF52FD4F60
:104A900086819781A085B1858C159D05AE05BF05E2
:104AA00031F02F5F3F4F2530310539F73AC045309F
:104AB00021F5822F90E0FC01EE0FFF1FE80FF91F98
:104AC000EE0FFF1FEE0FFF1FEF52FD4F8682978202
:104AD000A086B18612C080E090E000000196F7E267
:104AE00080319F07D1F70E9474241F5F143111F4A5
:104AF00080E004C020E030E0A3CF81E0AA960FB6AA
:104B0000F894DEBF0FBECDBFCF91DF911F910F9103
:104B1000FF90EF90DF90CF90BF90AF909F908F90DD
:104B200008954530C1F2E9CF8F929F92AF92BF9224
:104B3000CF92DF92EF92FF920F931F93DF93CF9369
:104B400000D000D0CDB7DEB77C01B42EA52E962EB6
:104B5000872E00E010E06E010894C11CD11CE19981
:104B6000FECFC8018E0D9F1D0E94673EF601E00F2B
:104B7000F11F80830F5F1F4F0430110581F72981DA
:104B80003A814B815C812F3F8FEF38078FEF4807C9
:104B90008FEF580741F42B2D3A2D492D582DC9017F
:104BA000DA019C01AD01B901CA010F900F900F907D
:104BB0000F90CF91DF911F910F91FF90EF90DF90B9
:104BC000CF90BF90AF909F908F9008950E946A26DB
:104BD0008EE190E040E050E060E070E00E949425BB
:104BE00060933406709335068093360690933706AB
:104BF00082E290E04FEF5FEF6FEF70E00E9494254C
:104C000060933C0670933D0680933E0690933F066A
:104C100086E290E040EC58EA61E071E00E94942561
:104C2000609338067093390680933A0690933B065A
:104C30001092600680E28093610688E180936206AC
:104C400081EB8093630685E1809364068EE6809312
:104C5000650610925A0682E080935B068FEC809383
:104C60005C0685E580935D0686E380935E0685EDB0
:104C700080935F060E94152D8DB79EB70A970FB6D9
:104C8000F8949EBF0FBE8DBFEDB7FEB7319680E49E
:104C900092E0ADB7BEB712969C938E931197809118
:104CA0003406828313828091350684831582809135
:104CB00036068683178280913706808711860E9488
:104CC00095168DB79EB70A960FB6F8949EBF0FBE85
:104CD0008DBF08958EB58D608EBD1DBC1CBC88E057
:104CE0009DE39BBD8ABD89B7806189BF08951F92EE
:104CF0000F920FB60F9211242F938F939F93AF9320
:104D0000BF938091990390919A03A0919B03B091D6
:104D10009C030196A11DB11D8093990390939A0362
:104D2000A0939B03B0939C03809197039091980369
:104D3000019690939803809397030197815B944029
:104D400018F0E0E0F0E0099480910F038260809316
:104D50000F03BF91AF919F918F912F910F900FBE35
:104D60000F901F901895E0E0F0E0099408950895E1
:104D700008950895AF92BF92CF92DF92EF92FF9283
:104D80000F931F9384E396E060E676E04AE151E0FA
:104D90002EE131E00CE21AE0AAE4EA2EA9E3FA2EB1
:104DA000F4E2CF2EF1E0DF2EE0E1AE2EB12C0E9436
:104DB000901D1F910F91FF90EF90DF90CF90BF90CB
:104DC000AF9008958EE190E040E050E060E070E048
:104DD0000E949425609334067093350680933606BE
:104DE0009093370682E290E04FEF5FEF6FEF70E055
:104DF0000E94942560933C0670933D0680933E0686
:104E000090933F0686E290E040EC58EA61E071E062
:104E10000E949425609338067093390680933A0671
:104E200090933B060895CF93DF93CEE1D0E0E199D4
:104E3000FECFFE01EA5EF94FCE0160810E946F3E17
:104E40002196C232D10599F7C2E2D0E0E199FECFB6
:104E5000FE01E65EF94FCE0160810E946F3E219611
:104E6000C632D10599F7C6E2D0E0E199FECFFE0146
:104E7000EE5EF94FCE0160810E946F3E2196CA32EC
:104E8000D10599F7DF91CF9108950F931F93CF9399
:104E9000DF938C018091460690914706892BA1F003
:104EA000C0E0D0E0E199FECFFE01EE0FFF1FEA5B0C
:104EB000F94F60817181CE01800F911F0E946F3E7A
:104EC0002196C430D10571F7DF91CF911F910F91D9
:104ED0000895EF92FF921F93CF93DF93CBE5D2E03B
:104EE00014E1E12E14E0F12EFE012196149100D080
:104EF00000D0EDB7FEB73196ADB7BEB71296FC92B3
:104F0000EE921197128313820E9495160F900F90C4
:104F10000F900F90112341F7DF91CF911F91FF90D8
:104F2000EF9008958F929F92AF92BF92CF92DF92AF
:104F3000EF92FF920F931F936091990370919A03E0
:104F400080919B0390919C03C0909903D0909A0309
:104F5000E0909B03F0909C038090990390909A03BB
:104F6000A0909B03B0909C032DB73EB728503040D3
:104F70000FB6F8943EBF0FBE2DBF0DB71EB70F5F23
:104F80001F4F27E134E0EDB7FEB73283218320E1E4
:104F90003EE040E050E00E94FA39CA01B90128E140
:104FA00030E040E050E00E94FA39F8016283138259
:104FB000C701B6012CE330E040E050E00E94FA392E
:104FC000CA01B9012CE330E040E050E00E94FA3918
:104FD000F80164831582C501B4012CE330E040E0A0
:104FE00050E00E94FA39F801668317820E949516F4
:104FF0002DB73EB7285F3F4F0FB6F8943EBF0FBEA8
:105000002DBF1F910F91FF90EF90DF90CF90BF9039
:10501000AF909F908F900895CF93DF93E0914606D5
:10502000F09147068091480690914906A1E8B2E0C8
:10503000EE0FFF1FEA0FFB1F91838083409146060E
:1050400050914706209146063091470600D000D087
:1050500000D0EDB7FEB731968DE294E0CDB7DEB764
:105060009A83898353834283220F331FA20FB31F76
:105070008D919C91958384830E9495168DB79EB7E0
:1050800006960FB6F8949EBF0FBE8DBFDF91CF91ED
:1050900008952F923F924F925F926F927F928F92DC
:1050A0009F92AF92BF92CF92DF92EF92FF920F93B7
:1050B0001F93CF93DF93C0E0D0E006E1202E312C88
:1050C00015E7412E14E0512EB0E76B2EB4E07B2E95
:1050D000ABE68A2EA4E09A2EF6E6AF2EF4E0BF2EC1
:1050E000EBE5CE2EE4E0DE2E7EE4E72E74E0F72E34
:1050F00000D000D0EEE7F4E0ADB7BEB71296FC9357
:10510000EE9311971496DC93CE9313970E94951605
:10511000C29D8001C39D100DD29D100D11240E5E05
:105120001C4FF80180819181A281B38100D0EDB73D
:10513000FEB7528241829070A070B07083839483D6
:10514000A583B6830E949516F80180819181A28182
:10515000B381EDB7FEB772826182892F90E0A0E043
:10516000B0E083839483A583B6830E949516F801EB
:1051700080819181A281B381EDB7FEB79282818255
:105180008A2F90E0A0E0B0E083839483A583B68368
:105190000E949516F80180819181A281B381EDB7BB
:1051A000FEB7B282A1828B2F9927AA27BB278383C0
:1051B0009483A583B6830E949516D80114962D91E9
:1051C0003C91159714968D919C9115970F900F9087
:1051D000EDB7FEB7D282C182892F9927322F2227BD
:1051E000822B932B948383830E949516D801539628
:1051F0008C91EDB7FEB73196ADB7BEB71296FC9263
:10520000EE921197828313820E94951621960F9039
:105210000F900F900F90C530D10509F069CFDF9145
:10522000CF911F910F91FF90EF90DF90CF90BF90A3
:10523000AF909F908F907F906F905F904F903F9036
:105240002F9008952F923F924F925F926F927F928C
:105250008F929F92AF92BF92CF92DF92EF92FF9286
:105260000F931F93CF93DF93C0E0D0E007EA202E87
:1052700004E0302E1EE9412E14E0512EB9E96B2EC8
:10528000B4E07B2EA4E98A2EA4E09A2EFFE8AF2E8C
:10529000F4E0BF2EE2E8CE2EE4E0DE2E8E01000F19
:1052A000111F0C0F1D1F000F111F000F111F51EDBB
:1052B000E52E52E0F52EE00EF11ED7018C9100D0C4
:1052C00000D000D0EDB7FEB7319620EC34E0ADB79A
:1052D000BEB712963C932E931197D383C2838483D7
:1052E00015820E949516D70111968C910F900F9000
:1052F000EDB7FEB731962BEB34E0ADB7BEB71296E3
:105300003C932E931197828313820E949516F80185
:10531000ED52FD4F8081EDB7FEB7319626EB34E0BC
:10532000ADB7BEB712963C932E931197828313822A
:105330000E949516D70113968C91EDB7FEB7319662
:1053400021EB34E0ADB7BEB712963C932E93119784
:10535000828313820E9495160B521D4FD8018C91A7
:10536000EDB7FEB731962CEA34E0ADB7BEB7129672
:105370003C932E931197828313820E949516D70136
:1053800015968C91EDB7FEB73196ADB7BEB71296B4
:105390003C922E921197828313820E949516F701F8
:1053A00086819781A085B18500D0EDB7FEB7528286
:1053B00041829070A070B07083839483A583B6837C
:1053C0000E949516F70186819781A085B185EDB77A
:1053D000FEB772826182892F90E0A0E0B0E0838303
:1053E0009483A583B6830E949516F70186819781E1
:1053F000A085B185EDB7FEB7928281828A2F90E0B9
:10540000A0E0B0E083839483A583B6830E949516C1
:10541000F70186819781A085B185EDB7FEB7B2828D
:10542000A1828B2F9927AA27BB2783839483A583E7
:10543000B6830E949516D7011A968D919C911B9761
:105440000F900F90EDB7FEB7D282C1829483838311
:105450000E94951621960F900F900F900F90C530D7
:10546000D10509F01BCFDF91CF911F910F91FF90D4
:10547000EF90DF90CF90BF90AF909F908F907F90F4
:105480006F905F904F903F902F90089500D000D084
:10549000EDB7FEB731968DEC94E0ADB7BEB712967E
:1054A0009C938E9311978091CA02828313820E94EB
:1054B00095160F900F900F900F9008958DB79EB78F
:1054C0000E970FB6F8949EBF0FBE8DBFEDB7FEB717
:1054D000319685EE94E0ADB7BEB712969C938E934D
:1054E0001197809160068283138280916106848384
:1054F0001582809162068683178280916306808779
:105500001186809164068287138680916506848760
:1055100015860E9495168DB79EB70E960FB6F89415
:105520009EBF0FBE8DBF089586E290E00E94452782
:1055300086E290E040EC58EA61E071E00E94942538
:10554000609338067093390680933A0690933B0631
:105550008DB79EB70A970FB6F8949EBF0FBE8DBF4A
:10556000EDB7FEB7319687E095E0ADB7BEB71296BE
:105570009C938E9311978091380682831382809139
:1055800039068483158280913A068683178280913A
:105590003B06808711860E9495168DB79EB70A96A6
:1055A0000FB6F8949EBF0FBE8DBF089582E290E0C3
:1055B0000E94452782E290E04FEF5FEF6FEF70E0CF
:1055C0000E94942560933C0670933D0680933E06AE
:1055D00090933F068DB79EB70A970FB6F8949EBF7B
:1055E0000FBE8DBFEDB7FEB7319684E295E0ADB743
:1055F000BEB712969C938E93119780913C0682833E
:10560000138280913D068483158280913E068683B5
:10561000178280913F06808711860E9495168DB76C
:105620009EB70A960FB6F8949EBF0FBE8DBF089521
:105630008EE190E00E9445278EE190E040E050E04E
:1056400060E070E00E949425609334067093350604
:1056500080933606909337068DB79EB70A970FB69C
:10566000F8949EBF0FBE8DBFEDB7FEB731968FE3A6
:1056700095E0ADB7BEB712969C938E93119780912B
:10568000340682831382809135068483158280914B
:1056900036068683178280913706808711860E949E
:1056A00095168DB79EB70A960FB6F8949EBF0FBE9B
:1056B0008DBF0895AF92BF92CF92DF92EF92FF928B
:1056C0000F931F938091460690914706892B09F40A
:1056D0004AC0A0904606B090470660914806709177
:1056E000490620914A0630914B06E0904C06F09016
:1056F0004D0680E090E0982F872F762F662740E0B8
:1057000050E0A90133272227620F731F841F951FC2
:10571000CC24DD246A0D7B1D8C1D9D1D00E010E056
:105720001E2D0027FF24EE246E0D7F1D801F911F6C
:1057300060932E0670932F06809330069093310667
:105740000E94A32460912E0670912F06809130064E
:105750009091310648E020E001E010E031E0E32ED6
:10576000F12C0E94CE221F910F91FF90EF90DF90BD
:10577000CF90BF90AF900895CF92DF92EF92FF92BB
:105780000F931F93DF93CF9300D0CDB7DEB79A83EB
:105790008983CE01019664E371E00E94253C6C018F
:1057A00010E00FC01F5FE12FF0E0EE0FFF1FEE0FC4
:1057B000FF1FEE57FE4F80819181892B11F480E00D
:1057C0003AC0E12EFF24F701EE0FFF1FEE0FFF1F7F
:1057D000EE57FE4F80819181B6010E94AB3B892B31
:1057E00009F700E010E06E010894C11CD11CC6014D
:1057F00066E371E00E94253C60E070E040E050E02C
:105800000E941C3AF801EE0FFF1FEA5BF94F71830B
:1058100060830F5F1F4F0A30110549F7EE0CFF1C24
:10582000EE0CFF1C84E891E0E80EF91ED701ED9123
:10583000FC91099581E00F900F90CF91DF911F911E
:105840000F91FF90EF90DF90CF900895CF93DF936B
:10585000EC01DB0134C086958695FD01819388813A
:1058600083708295807F11968C93119799819923EB
:1058700021F4DF01119642E026C092959F70890FB6
:1058800011968C93119789818F70880F880F1296CB
:105890008C9312979A81992319F4139641E013C0BF
:1058A0009295969596959370890F12968C93129770
:1058B0008A818F7313968C931397149623968881FD
:1058C000882349F640E01C92EB0108C0E881F0E033
:1058D000EF73F070E85AFA4FE491E993CA17DB07C7
:1058E000A9F7FD01842F9DE302C091938150882385
:1058F000E1F7A40FB11D1C92DF91CF910895C398D9
:105900008F71806A8FB9779BFECF6FB9779BFECF7F
:10591000C39A0895C3988F7180688FB9779BFECF23
:105920006FB9779BFECFC39A0895FF920F931F9391
:10593000CF93DF93182F9FE1F92EF82289E18F157D
:10594000D0F0C12FD0E0C076D07085E0D595C79556
:105950008A95E1F70C2F8091CD02C81761F08FE195
:1059600063E00E947F2CCC2321F08FE16C2F0E94FA
:105970008A2C0093CD02C398FFB8779BFECF1FB847
:10598000779BFECF17FF03C01FB8779BFECF8FB169
:10599000C39ADF91CF911F910F91FF900895FF92CD
:1059A0000F931F93CF93DF93F62E182F1F711A3189
:1059B000D0F4C82FD0E0C076D07025E0D595C7953B
:1059C0002A95E1F70C2F8091CD02C81761F08FE185
:1059D00063E00E947F2CCC2321F08FE16C2F0E948A
:1059E0008A2C0093CD02C39810641FB9779BFECF19
:1059F000FFB8779BFECFC39ADF91CF911F910F9194
:105A0000FF900895FC01C3988AE38FB9779BFECF7E
:105A100007C01FB8779BFECF8FB181936150704054
:105A200061157105B1F7C39A0895EF92FF920F9334
:105A30001F93CF93DF93BB9AC39A87B3806A87BBC8
:105A4000C79ABE98BC9A80E58DB981E08EB980E195
:105A500097E201972FEF8F3F920729F00000000097
:105A600000000000F6CFC3988FEF8FB9779BFECF71
:105A7000C39A88EE93E00197AFEF8F3F9A0729F022
:105A80000000000000000000F6CF8DE10E94952C80
:105A900080FFFBCF82E70E94952C8093CA0200D042
:105AA00000D0EDB7FEB7319620ED35E0ADB7BEB70B
:105AB00012963C932E931197828313820E9495161F
:105AC0001092600680E28093610688E1809362060E
:105AD00081EB8093630685E1809364068EE6809374
